:100800004D617279204861642061204C6974746C78
:1008100065204C616D620A0D00486F742043726F51
:1008200073732042756E730A0D004D61007279007A
:100830002068616400206100206C697400746C653C
:1008400000206C616D622C00206C616D622E0D0ABF
:1008500000206C616D622E00204974730020666C6C
:10086000656563650020776173002077686974654A
:10087000002061730020736E6F772E0D0A00486FA1
:1008800074002063726F7373002062756E732E00A4
:1008900020486F7400204F6E65002070656E006EFA
:1008A000792C002074776F006E792E002062756EAF
:1008B000732E0D0A00FF0800FF0819452F152F455C
:1008C00045452F2F2F456363452F152F454545453A
:1008D0002F2F452F15452F15452F15151515152F9C
:1008E0002F2F2F452F1500000000000000000019D9
:1008F0001C1F1C1919321C1C3819152A191C1F1C05
:10090000191919191C1C191C7D32387D32387D1FAC
:100910001F1F1F1C1C1C1C32387D00000000000023
:10092000000000FF082AFF082DFF0830FF0835FFF0
:100930000838FF083DFF0841FF0838FF083DFF0861
:1009400041FF0838FF083DFF0848FF082AFF082D2F
:10095000FF0830FF0835FF0838FF083DFF0851FF4A
:100960000858FF085DFF0865FF086AFF0871FF0867
:1009700075FF087EFF0882FF0889FF0890FF088244
:10098000FF0889FF0895FF0835FF089AFF089FFFB9
:1009900008A3FF0835FF089AFF08A8FF0890FF0882
:1009A00082FF08AC00000000000000000000000012
:1009B0000000000000000000000000000000001A1D
:0A09C00011283C5064788CA0B4C8E4
:100EC400010D00011600010A0001090001121401BC
:100ED4001001010C00011300011400010B010108B1
:010EE400000D
:080F7A004389028F8CD28C2206
:03000B000209CA1D
:1009CA00C0E0C0F0C083C082C0D075D000C000C0F3
:0D09DA0001C002C003C004C005C006C00774
:1009E7007517007518001512E5126003020B3375B1
:1009F7001214751001E50D24FE6010147003020A2D
:100A0700FF24026003020B31751000050AE50A6432
:100A1700076003020B31E50CC395155031E51075DE
:100A2700F04EA42423F582E43409F58375F003E539
:100A370016120E60E493FB740193FA740293F9851E
:100A47000C82758300120E33FF120F82050C750A94
:100A5700001509E5096003020B31751700751800C9
:100A67000518E51870020517B410F5E517B427F057
:100A77000516E5109009BF93B5160653A8FD020B9E
:100A870031750C00751500E51075F04EA42423F59B
:100A970082E43409F58375F003E516120E60E493DA
:100AA700FB740193FA740293F9851582758300121A
:100AB7000E336004051580CFE51075F01AA424BB2A
:100AC700F582E43408F583E5822516F582E435835B
:100AD700F583E493FF120F7AE51075F01AA424EF5B
:100AE700F582E43408F583E5822516F582E435833B
:100AF700F583E493F50980321511E511702CE50BA8
:100B07002513F513B40803750BFFE5137003750B75
:100B170001E5139009C193FF120F7AE51393FF7450
:0C0B2700C88FF08475F032A4F511B2976D
:100B3300D007D006D005D004D003D002D001D00016
:0B0B4300D0D0D082D083D0F0D0E032C0
:100F4D00E4F516050DE50DD394034003E4F50D22EC
:100F3B00E4F5B1F5A4F591F5847F01120F7A75A84C
:020F4B009022F2
:100F5D00E50DC31324FFB392A4E50D13B3928522BF
:040F8A0075A8902294
:0B0D4A00E493FB740193FA740293F928
:060D55008B198A1A891BAC
:100D5B00E4F51D120E6CE4F51DAB19AA1AA91B853F
:100D6B001D82758300120E336004051D80EBE4F5C4
:100D7B001CE51CC3951D5017AB19AA1AA91B851C82
:0F0D8B0082758300120E33FF120F82051C80E267
:010D9A002236
:100CE500E4F50CF51590092375F04EEF120E60EE44
:100CF50075F04EA42583F583E493FB740193FA7490
:100D05000293F9851582758300120E33600405156B
:100D150080D3E4F5169008EF75F01AEF120E60EE29
:100D250075F01AA42583F583E493F5099008BB753E
:100D3500F01AEF120E60EE75F01AA42583F583E420
:050D450093FF020F7A8C
:100D9B00E5A820E10BD2B1D2B0D294D282D280227C
:100DAB00E58CD394144004C2B18002D2B1E58CD34C
:100DBB0094234004C2B08002D2B0E58CD39432406D
:100DCB0004C2948002D294E58CD394414004C28235
:100DDB008002D282E58CD394504003C28022D28011
:010DEB0022E5
:100E9D0020A0047F45800C2081047F2F800520A396
:100EAD00057F15120F7A30A00630810320A304436D
:070EBD00A8022253A8FD2248
:100EE6007FC8120F7A43A802E4F50EF50F050FE549
:100EF6000F7002050EB410F5E50EB427F053A8FDE9
:010F060022C8
:100F07007F64120F7A43A802E4F50EF50F050FE58B
:100F17000F7002050EB410F5E50EB427F053A8FDC7
:010F270022A7
:100F2800D2A4D285D2A7D286D296D284D2A5D2878D
:030F3800D2A6221C
:100DEC00120F28E513B40900503C900DFDF828288B
:100DFC0073020E18020E1B020E1E020E21020E248E
:100E0C00020E27020E2A020E2D020E30C2A422C29E
:100E1C008522C2A722C28622C29622C28422C2A5E1
:070E2C0022C28722C2A622A8
:100B4E00120F3B120D9B20A227E4F514120F4D122B
:100B5E000F8A120F28120F5DE4F50EF50F050FE543
:100B6E000F7002050EB4E8F5E50EB403F030A2FDE9
:100B7E00E50D7005120E9D80CAE50D64037046E505
:100B8E00146003120DEC20A0BA751401E4F5137570
:100B9E000B01E5139009C193FF74C88FF08475F0B3
:100BAE0032A4F511120F7AE4F50EF50F050FE50FCD
:100BBE007002050EB4E8F5E50EB403F030A0FD4367
:100BCE00A802020B5120A03DE5A820E138E50DB4A6
:100BDE00010B9008B5120D4AE4FFFE800A9008B88A
:100BEE00120D4A7F017E00120CE543A802E4F50EB9
:100BFE00F50F050FE50F7002050EB4E8F5E50EB41E
:100C0E0003F030A0FD20811D53A8FDE4F516F50E6E
:100C1E00F50F050FE50F7002050EB4E8F5E50EB4FD
:100C2E0003F03081FD30A303020B5153A8FDE4F510
:100C3E000EF50F050FE50F7002050EB4E8F5E50E83
:0B0C4E00B403F030A303020B5180F848
:100E6C005387BF75985053877FE4F5BA43A240F57A
:100E7C00BD75BEF075BF0275BD035391FE43920163
:100E8C004391025392FDC20053B8EF53B7EFD2AC6B
:010E9C002233
:03002300020F6D5C
:0D0F6D00309802C298309904C299C2003237
:080F82002000FDD2008F99222E
:030F8E00AF9922F6
:03000000020C5996
:0C0C5900787FE4F6D8FD758120020CA025
:100E3300BB010CE58229F582E5833AF583E0225074
:100E430006E92582F8E622BBFE06E92582F8E222BE
:0D0E5300E58229F582E5833AF583E49322D8
:0C0E6000A42582F582E5F03583F583229D
:100C6500020B4EE493A3F8E493A34003F68001F24C
:100C750008DFF48029E493A3F85407240CC8C33390
:100C8500C4540F4420C8834004F456800146F6DF5F
:100C9500E4800B0102040810204080900EC4E47E1D
:100CA500019360BCA3FF543F30E509541FFEE49354
:100CB500A360010ECF54C025E060A840B8E493A31B
:100CC500FAE493A3F8E493A3C8C582C8CAC583CA46
:100CD500F0A3C8C582C8CAC583CADFE9DEE780BEFE
:010EE500000C
:00000001FF
