:03000000020800F3
:1008000075A40075910075840075080075815F7589
:10081000093120A016E5082401F508A2D69200129D
:10082000084730000312085A30A0FD208117E50860
:10083000C39401F508A2D6920012084730000312B3
:10084000085A3081FD80CBF50813B3928613B3921A
:10085000A713B3928513B392A42275890285098CDC
:1008600085098AD28CC28D7F057E007818308DFD77
:0D087000C28DD8F9B297DEF3DFEFC28C2203
:00000001FF
