:03000000020800F3
:1008000075A40075910075840075080075815F7589
:100810000931C201C202750A10750B0FC200200215
:100820006320A0180508E508C3950A7005D2007575
:100830000800119530000211E630A0FD208118E576
:1008400008C39401F5085005D200850B08119530B6
:10085000000211E63081FD20942230010FC20175A3
:100860000A10750B0F75080011D3800DD201750A9F
:1008700007750B0675080011D33094FD20A20520E2
:100880000102311720A10711D3B20230A1FD3002BD
:100890000231568087200113E50813B3928613B303
:1008A00092A713B3928513B392A422E5089009107E
:1008B0009313E5089009099392A41392A6139287C3
:1008C0001392A51392841392961392861392A713F0
:1008D000928522D2A4D285D2A7D286D296D284D2B1
:1008E000A5D287D2A62275890285098C85098AD26C
:1008F0008CC28D7F057E007818308DFDC28DD8F9B1
:10090000B297DEF3DFEFC28C22FFEFFEEEBAAA92BF
:10091000010100000000009009A5750D00E50D9390
:10092000F50C050DE50D93F509050D450C60043139
:100930003480EA2275890285098C85098AD28CC2A5
:080940008D7E28780A308DFD40
:10094800C28DD8F9B297DEF3D50CEEC28C2211D342
:10095800C2A520A00AC2A4750C057509623134200D
:10096800810AC285750C05750959313420A30AC25C
:10097800A7750C057509A23134209420C2969009F8
:10098800A5750D42E50D93F50C050DE50D93F509DB
:10099800050DE50D645C6004313480E82207A20C83
:1009A800591C06FFFF076207590762FFFF074FFF41
:1009B800FF31A219A2FFFF076207591D621306FF44
:1009C800FF0CA20B960CA2FFFF0B96FFFF0B210C4E
:1009D800A2FFFF429605210B964AA20B960CA20E87
:1009E8005919A216960A2113061D623E590D4F1673
:0B09F80062074F0CA25359FFFF0000E4
:00000001FF
