:03000000020800F3
:1008000075A40075910075840075080075815F7589
:100810000931C201750A10750B0FC20020A018051E
:1008200008E508C3950A7005D200750800118130EB
:10083000000211D230A0FD208118E508C39401F513
:10084000085005D200850B08118130000211D2300A
:1008500081FD20942230010FC201750A10750B0F23
:1008600075080011BF800DD201750A07750B06755A
:10087000080011BF3094FD20A20520010231038041
:1008800099200113E50813B3928613B392A713B30B
:10089000928513B392A422E5089008FC9313E5080F
:1008A0009008F59392A41392A61392871392A5131E
:1008B00092841392961392861392A713928522D252
:1008C000A4D285D2A7D286D296D284D2A5D287D2FC
:1008D000A62275890285098C85098AD28CC28D7FF2
:1008E000057E007818308DFDC28DD8F9B297DEF301
:1008F000DFEFC28C22FFEFFEEEBAAA9201010000E8
:100900000000009009417400E50D93F50C050DE51C
:100910000D93F509050D450C6004311F80EA227521
:10092000890285098C85098AD28CC28D7E28780A35
:10093000308DFDC28DD8F9B297DEF3D50CEEC28CA6
:100940002207A20C591C06FFFF076207590762FF26
:10095000FF074FFFFF31A219A2FFFF076207591DD2
:10096000621306FFFF0CA20B960CA2FFFF0B96FF73
:10097000FF0B210CA2FFFF429605210B964AA20B0A
:10098000960CA20E5919A216960A2113061D623E54
:0F099000590D4F1662074F0CA25359FFFF00007D
:00000001FF
